{
  "_format": "hh-sol-artifact-1",
  "contractName": "ContractMetadataRegistry",
  "sourceName": "contracts/ContractMetadataRegistry.sol",
  "abi": [
    {
      "inputs": [],
      "stateMutability": "nonpayable",
      "type": "constructor"
    },
    {
      "inputs": [],
      "name": "AccessControlBadConfirmation",
      "type": "error"
    },
    {
      "inputs": [
        {
          "internalType": "address",
          "name": "account",
          "type": "address"
        },
        {
          "internalType": "bytes32",
          "name": "neededRole",
          "type": "bytes32"
        }
      ],
      "name": "AccessControlUnauthorizedAccount",
      "type": "error"
    },
    {
      "inputs": [
        {
          "internalType": "address",
          "name": "target",
          "type": "address"
        }
      ],
      "name": "AddressEmptyCode",
      "type": "error"
    },
    {
      "inputs": [
        {
          "internalType": "address",
          "name": "implementation",
          "type": "address"
        }
      ],
      "name": "ERC1967InvalidImplementation",
      "type": "error"
    },
    {
      "inputs": [],
      "name": "ERC1967NonPayable",
      "type": "error"
    },
    {
      "inputs": [],
      "name": "FailedCall",
      "type": "error"
    },
    {
      "inputs": [],
      "name": "InvalidInitialization",
      "type": "error"
    },
    {
      "inputs": [],
      "name": "NotInitializing",
      "type": "error"
    },
    {
      "inputs": [
        {
          "internalType": "address",
          "name": "owner",
          "type": "address"
        }
      ],
      "name": "OwnableInvalidOwner",
      "type": "error"
    },
    {
      "inputs": [
        {
          "internalType": "address",
          "name": "account",
          "type": "address"
        }
      ],
      "name": "OwnableUnauthorizedAccount",
      "type": "error"
    },
    {
      "inputs": [],
      "name": "UUPSUnauthorizedCallContext",
      "type": "error"
    },
    {
      "inputs": [
        {
          "internalType": "bytes32",
          "name": "slot",
          "type": "bytes32"
        }
      ],
      "name": "UUPSUnsupportedProxiableUUID",
      "type": "error"
    },
    {
      "anonymous": false,
      "inputs": [
        {
          "indexed": true,
          "internalType": "address",
          "name": "contractAddr",
          "type": "address"
        },
        {
          "indexed": true,
          "internalType": "address",
          "name": "delegate",
          "type": "address"
        },
        {
          "indexed": false,
          "internalType": "bool",
          "name": "allowed",
          "type": "bool"
        }
      ],
      "name": "DelegateSet",
      "type": "event"
    },
    {
      "anonymous": false,
      "inputs": [
        {
          "indexed": false,
          "internalType": "uint64",
          "name": "version",
          "type": "uint64"
        }
      ],
      "name": "Initialized",
      "type": "event"
    },
    {
      "anonymous": false,
      "inputs": [
        {
          "indexed": true,
          "internalType": "address",
          "name": "contractAddr",
          "type": "address"
        },
        {
          "indexed": true,
          "internalType": "address",
          "name": "moderator",
          "type": "address"
        }
      ],
      "name": "MetadataApproved",
      "type": "event"
    },
    {
      "anonymous": false,
      "inputs": [
        {
          "indexed": true,
          "internalType": "address",
          "name": "contractAddr",
          "type": "address"
        },
        {
          "indexed": true,
          "internalType": "address",
          "name": "moderator",
          "type": "address"
        },
        {
          "indexed": false,
          "internalType": "string",
          "name": "reason",
          "type": "string"
        }
      ],
      "name": "MetadataRejected",
      "type": "event"
    },
    {
      "anonymous": false,
      "inputs": [
        {
          "indexed": true,
          "internalType": "address",
          "name": "contractAddr",
          "type": "address"
        },
        {
          "indexed": true,
          "internalType": "address",
          "name": "owner",
          "type": "address"
        },
        {
          "indexed": false,
          "internalType": "string",
          "name": "metadataCid",
          "type": "string"
        },
        {
          "indexed": false,
          "internalType": "bytes32",
          "name": "contentHash",
          "type": "bytes32"
        },
        {
          "indexed": false,
          "internalType": "uint64",
          "name": "version",
          "type": "uint64"
        }
      ],
      "name": "MetadataSubmitted",
      "type": "event"
    },
    {
      "anonymous": false,
      "inputs": [
        {
          "indexed": true,
          "internalType": "address",
          "name": "previousOwner",
          "type": "address"
        },
        {
          "indexed": true,
          "internalType": "address",
          "name": "newOwner",
          "type": "address"
        }
      ],
      "name": "OwnershipTransferred",
      "type": "event"
    },
    {
      "anonymous": false,
      "inputs": [
        {
          "indexed": true,
          "internalType": "address",
          "name": "contractAddr",
          "type": "address"
        },
        {
          "indexed": true,
          "internalType": "address",
          "name": "previousOwner",
          "type": "address"
        },
        {
          "indexed": true,
          "internalType": "address",
          "name": "newOwner",
          "type": "address"
        }
      ],
      "name": "RecordOwnershipTransferred",
      "type": "event"
    },
    {
      "anonymous": false,
      "inputs": [
        {
          "indexed": true,
          "internalType": "address",
          "name": "contractAddr",
          "type": "address"
        },
        {
          "indexed": true,
          "internalType": "address",
          "name": "resolver",
          "type": "address"
        }
      ],
      "name": "ResolverSet",
      "type": "event"
    },
    {
      "anonymous": false,
      "inputs": [
        {
          "indexed": true,
          "internalType": "bytes32",
          "name": "role",
          "type": "bytes32"
        },
        {
          "indexed": true,
          "internalType": "bytes32",
          "name": "previousAdminRole",
          "type": "bytes32"
        },
        {
          "indexed": true,
          "internalType": "bytes32",
          "name": "newAdminRole",
          "type": "bytes32"
        }
      ],
      "name": "RoleAdminChanged",
      "type": "event"
    },
    {
      "anonymous": false,
      "inputs": [
        {
          "indexed": true,
          "internalType": "bytes32",
          "name": "role",
          "type": "bytes32"
        },
        {
          "indexed": true,
          "internalType": "address",
          "name": "account",
          "type": "address"
        },
        {
          "indexed": true,
          "internalType": "address",
          "name": "sender",
          "type": "address"
        }
      ],
      "name": "RoleGranted",
      "type": "event"
    },
    {
      "anonymous": false,
      "inputs": [
        {
          "indexed": true,
          "internalType": "bytes32",
          "name": "role",
          "type": "bytes32"
        },
        {
          "indexed": true,
          "internalType": "address",
          "name": "account",
          "type": "address"
        },
        {
          "indexed": true,
          "internalType": "address",
          "name": "sender",
          "type": "address"
        }
      ],
      "name": "RoleRevoked",
      "type": "event"
    },
    {
      "anonymous": false,
      "inputs": [
        {
          "indexed": true,
          "internalType": "address",
          "name": "implementation",
          "type": "address"
        }
      ],
      "name": "Upgraded",
      "type": "event"
    },
    {
      "inputs": [],
      "name": "DEFAULT_ADMIN_ROLE",
      "outputs": [
        {
          "internalType": "bytes32",
          "name": "",
          "type": "bytes32"
        }
      ],
      "stateMutability": "view",
      "type": "function"
    },
    {
      "inputs": [],
      "name": "MODERATOR_ROLE",
      "outputs": [
        {
          "internalType": "bytes32",
          "name": "",
          "type": "bytes32"
        }
      ],
      "stateMutability": "view",
      "type": "function"
    },
    {
      "inputs": [],
      "name": "UPGRADE_INTERFACE_VERSION",
      "outputs": [
        {
          "internalType": "string",
          "name": "",
          "type": "string"
        }
      ],
      "stateMutability": "view",
      "type": "function"
    },
    {
      "inputs": [
        {
          "internalType": "address",
          "name": "contractAddr",
          "type": "address"
        }
      ],
      "name": "approve",
      "outputs": [],
      "stateMutability": "nonpayable",
      "type": "function"
    },
    {
      "inputs": [
        {
          "internalType": "address",
          "name": "contractAddr",
          "type": "address"
        }
      ],
      "name": "getRecord",
      "outputs": [
        {
          "components": [
            {
              "internalType": "address",
              "name": "owner",
              "type": "address"
            },
            {
              "internalType": "string",
              "name": "metadataCid",
              "type": "string"
            },
            {
              "internalType": "bytes32",
              "name": "contentHash",
              "type": "bytes32"
            },
            {
              "internalType": "uint64",
              "name": "version",
              "type": "uint64"
            },
            {
              "internalType": "enum IContractMetadataRegistry.Status",
              "name": "status",
              "type": "uint8"
            },
            {
              "internalType": "uint64",
              "name": "lastUpdated",
              "type": "uint64"
            }
          ],
          "internalType": "struct IContractMetadataRegistry.MetadataRecord",
          "name": "",
          "type": "tuple"
        }
      ],
      "stateMutability": "view",
      "type": "function"
    },
    {
      "inputs": [
        {
          "internalType": "address",
          "name": "contractAddr",
          "type": "address"
        }
      ],
      "name": "getResolver",
      "outputs": [
        {
          "internalType": "address",
          "name": "",
          "type": "address"
        }
      ],
      "stateMutability": "view",
      "type": "function"
    },
    {
      "inputs": [
        {
          "internalType": "bytes32",
          "name": "role",
          "type": "bytes32"
        }
      ],
      "name": "getRoleAdmin",
      "outputs": [
        {
          "internalType": "bytes32",
          "name": "",
          "type": "bytes32"
        }
      ],
      "stateMutability": "view",
      "type": "function"
    },
    {
      "inputs": [
        {
          "internalType": "bytes32",
          "name": "role",
          "type": "bytes32"
        },
        {
          "internalType": "address",
          "name": "account",
          "type": "address"
        }
      ],
      "name": "grantRole",
      "outputs": [],
      "stateMutability": "nonpayable",
      "type": "function"
    },
    {
      "inputs": [
        {
          "internalType": "bytes32",
          "name": "role",
          "type": "bytes32"
        },
        {
          "internalType": "address",
          "name": "account",
          "type": "address"
        }
      ],
      "name": "hasRole",
      "outputs": [
        {
          "internalType": "bool",
          "name": "",
          "type": "bool"
        }
      ],
      "stateMutability": "view",
      "type": "function"
    },
    {
      "inputs": [
        {
          "internalType": "address",
          "name": "_owner",
          "type": "address"
        },
        {
          "internalType": "address",
          "name": "_moderator",
          "type": "address"
        }
      ],
      "name": "initialize",
      "outputs": [],
      "stateMutability": "nonpayable",
      "type": "function"
    },
    {
      "inputs": [
        {
          "internalType": "address",
          "name": "contractAddr",
          "type": "address"
        },
        {
          "internalType": "address",
          "name": "delegate",
          "type": "address"
        }
      ],
      "name": "isDelegate",
      "outputs": [
        {
          "internalType": "bool",
          "name": "",
          "type": "bool"
        }
      ],
      "stateMutability": "view",
      "type": "function"
    },
    {
      "inputs": [],
      "name": "owner",
      "outputs": [
        {
          "internalType": "address",
          "name": "",
          "type": "address"
        }
      ],
      "stateMutability": "view",
      "type": "function"
    },
    {
      "inputs": [],
      "name": "proxiableUUID",
      "outputs": [
        {
          "internalType": "bytes32",
          "name": "",
          "type": "bytes32"
        }
      ],
      "stateMutability": "view",
      "type": "function"
    },
    {
      "inputs": [
        {
          "internalType": "address",
          "name": "contractAddr",
          "type": "address"
        },
        {
          "internalType": "string",
          "name": "reason",
          "type": "string"
        }
      ],
      "name": "reject",
      "outputs": [],
      "stateMutability": "nonpayable",
      "type": "function"
    },
    {
      "inputs": [],
      "name": "renounceOwnership",
      "outputs": [],
      "stateMutability": "nonpayable",
      "type": "function"
    },
    {
      "inputs": [
        {
          "internalType": "bytes32",
          "name": "role",
          "type": "bytes32"
        },
        {
          "internalType": "address",
          "name": "callerConfirmation",
          "type": "address"
        }
      ],
      "name": "renounceRole",
      "outputs": [],
      "stateMutability": "nonpayable",
      "type": "function"
    },
    {
      "inputs": [
        {
          "internalType": "bytes32",
          "name": "role",
          "type": "bytes32"
        },
        {
          "internalType": "address",
          "name": "account",
          "type": "address"
        }
      ],
      "name": "revokeRole",
      "outputs": [],
      "stateMutability": "nonpayable",
      "type": "function"
    },
    {
      "inputs": [
        {
          "internalType": "address",
          "name": "contractAddr",
          "type": "address"
        },
        {
          "internalType": "address",
          "name": "delegate",
          "type": "address"
        },
        {
          "internalType": "bool",
          "name": "allowed",
          "type": "bool"
        }
      ],
      "name": "setDelegate",
      "outputs": [],
      "stateMutability": "nonpayable",
      "type": "function"
    },
    {
      "inputs": [
        {
          "internalType": "address",
          "name": "contractAddr",
          "type": "address"
        },
        {
          "internalType": "address",
          "name": "resolver",
          "type": "address"
        }
      ],
      "name": "setResolver",
      "outputs": [],
      "stateMutability": "nonpayable",
      "type": "function"
    },
    {
      "inputs": [
        {
          "internalType": "address",
          "name": "contractAddr",
          "type": "address"
        },
        {
          "internalType": "string",
          "name": "metadataCid",
          "type": "string"
        },
        {
          "internalType": "bytes32",
          "name": "contentHash",
          "type": "bytes32"
        }
      ],
      "name": "submitMetadata",
      "outputs": [],
      "stateMutability": "nonpayable",
      "type": "function"
    },
    {
      "inputs": [
        {
          "internalType": "bytes4",
          "name": "interfaceId",
          "type": "bytes4"
        }
      ],
      "name": "supportsInterface",
      "outputs": [
        {
          "internalType": "bool",
          "name": "",
          "type": "bool"
        }
      ],
      "stateMutability": "view",
      "type": "function"
    },
    {
      "inputs": [
        {
          "internalType": "address",
          "name": "newOwner",
          "type": "address"
        }
      ],
      "name": "transferOwnership",
      "outputs": [],
      "stateMutability": "nonpayable",
      "type": "function"
    },
    {
      "inputs": [
        {
          "internalType": "address",
          "name": "contractAddr",
          "type": "address"
        },
        {
          "internalType": "address",
          "name": "newOwner",
          "type": "address"
        }
      ],
      "name": "transferRecordOwnership",
      "outputs": [],
      "stateMutability": "nonpayable",
      "type": "function"
    },
    {
      "inputs": [
        {
          "internalType": "address",
          "name": "newImplementation",
          "type": "address"
        },
        {
          "internalType": "bytes",
          "name": "data",
          "type": "bytes"
        }
      ],
      "name": "upgradeToAndCall",
      "outputs": [],
      "stateMutability": "payable",
      "type": "function"
    }
  ],
  "bytecode": "0x60a06040523060805234801561001457600080fd5b5061001d610022565b6100d4565b7ff0c57e16840df040f15088dc2f81fe391c3923bec73e23a9662efc9c229c6a00805468010000000000000000900460ff16156100725760405163f92ee8a960e01b815260040160405180910390fd5b80546001600160401b03908116146100d15780546001600160401b0319166001600160401b0390811782556040519081527fc7f505b2f371ae2175ee4913f4499e1f2633a7b5936321eed1cdaeb6115181d29060200160405180910390a15b50565b608051611e196100fd60003960008181611298015281816112c101526114020152611e196000f3fe60806040526004361061014b5760003560e01c8063715018a6116100b6578063ad3cb1cc1161006f578063ad3cb1cc1461040d578063afebf3911461044b578063d547741f1461046b578063daea85c51461048b578063e1b786ef146104ab578063f2fde38b146104cb57600080fd5b8063715018a61461034457806372c3611014610359578063797669c9146103795780638da5cb5b1461039b57806391d14854146103d8578063a217fddf146103f857600080fd5b80634f1ef286116101085780634f1ef2861461023557806352d1902d146102485780635392c1571461025d578063597e99cb146102ae5780635fec5d0b146102ce578063617fba041461031757600080fd5b806301ffc9a714610150578063227d029114610185578063248a9ca3146101a75780632f2ff15d146101d557806336568abe146101f5578063485cc95514610215575b600080fd5b34801561015c57600080fd5b5061017061016b366004611763565b6104eb565b60405190151581526020015b60405180910390f35b34801561019157600080fd5b506101a56101a03660046117f1565b610522565b005b3480156101b357600080fd5b506101c76101c2366004611843565b610671565b60405190815260200161017c565b3480156101e157600080fd5b506101a56101f036600461185c565b610693565b34801561020157600080fd5b506101a561021036600461185c565b6106b5565b34801561022157600080fd5b506101a5610230366004611888565b6106ed565b6101a56102433660046118c8565b6108a5565b34801561025457600080fd5b506101c76108c4565b34801561026957600080fd5b5061029661027836600461198f565b6001600160a01b039081166000908152600260205260409020541690565b6040516001600160a01b03909116815260200161017c565b3480156102ba57600080fd5b506101a56102c9366004611888565b6108e1565b3480156102da57600080fd5b506101706102e9366004611888565b6001600160a01b03918216600090815260016020908152604080832093909416825291909152205460ff1690565b34801561032357600080fd5b5061033761033236600461198f565b6109c9565b60405161017c9190611a10565b34801561035057600080fd5b506101a5610b2d565b34801561036557600080fd5b506101a5610374366004611aa9565b610b41565b34801561038557600080fd5b506101c7600080516020611da483398151915281565b3480156103a757600080fd5b507f9016d09d72d40fdae2fd8ceac6b6234c7706214fd39c1cd1e609a0528c199300546001600160a01b0316610296565b3480156103e457600080fd5b506101706103f336600461185c565b610d7d565b34801561040457600080fd5b506101c7600081565b34801561041957600080fd5b5061043e604051806040016040528060058152602001640352e302e360dc1b81525081565b60405161017c9190611b02565b34801561045757600080fd5b506101a5610466366004611b15565b610db5565b34801561047757600080fd5b506101a561048636600461185c565b610ec4565b34801561049757600080fd5b506101a56104a636600461198f565b610ee0565b3480156104b757600080fd5b506101a56104c6366004611888565b610fdc565b3480156104d757600080fd5b506101a56104e636600461198f565b6110e2565b60006001600160e01b03198216637965db0b60e01b148061051c57506301ffc9a760e01b6001600160e01b03198316145b92915050565b600080516020611da483398151915261053a81611120565b6001600160a01b03841660009081526020819052604090206001600382810154600160401b900460ff1690811115610574576105746119fa565b146105b35760405162461bcd60e51b815260206004820152600a6024820152694e6f7450656e64696e6760b01b60448201526064015b60405180910390fd5b826105ee5760405162461bcd60e51b815260206004820152600b60248201526a22b6b83a3ca932b0b9b7b760a91b60448201526064016105aa565b6003810180546001600160401b034216600160481b0268ffffffffffffffffff60401b19909116176803000000000000000017905560405133906001600160a01b038716907f113d6ba2943fa068e4bd7d364d72026d06090d2ce84e4133f5360d8273c12876906106629088908890611b8a565b60405180910390a35050505050565b6000908152600080516020611dc4833981519152602052604090206001015490565b61069c82610671565b6106a581611120565b6106af838361112a565b50505050565b6001600160a01b03811633146106de5760405163334bd91960e11b815260040160405180910390fd5b6106e882826111cf565b505050565b60006106f761124b565b805490915060ff600160401b82041615906001600160401b031660008115801561071e5750825b90506000826001600160401b0316600114801561073a5750303b155b905081158015610748575080155b156107665760405163f92ee8a960e01b815260040160405180910390fd5b845467ffffffffffffffff19166001178555831561079057845460ff60401b1916600160401b1785555b6001600160a01b0387166107d25760405162461bcd60e51b81526020600482015260096024820152682d32b937a7bbb732b960b91b60448201526064016105aa565b6001600160a01b0386166108185760405162461bcd60e51b815260206004820152600d60248201526c2d32b937a6b7b232b930ba37b960991b60448201526064016105aa565b61082187611274565b610829611285565b610831611285565b61083c60008861112a565b50610855600080516020611da48339815191528761112a565b50831561089c57845460ff60401b19168555604051600181527fc7f505b2f371ae2175ee4913f4499e1f2633a7b5936321eed1cdaeb6115181d29060200160405180910390a15b50505050505050565b6108ad61128d565b6108b682611332565b6108c0828261133a565b5050565b60006108ce6113f7565b50600080516020611d8483398151915290565b6001600160a01b038083166000908152602081905260409020805484921633148061092f57506001600160a01b038216600090815260016020908152604080832033845290915290205460ff165b6109705760405162461bcd60e51b81526020600482015260126024820152714e6f744f776e65724f7244656c656761746560701b60448201526064016105aa565b6001600160a01b0384811660008181526002602052604080822080546001600160a01b0319169488169485179055517f7126a24e175b883fc2fd81c07197434bd8790327d4fa35492827096cfcabbbdf9190a350505050565b6040805160c080820183526000808352606060208085018290528486018390529084018290526080840182905260a084018290526001600160a01b038681168352828252918590208551938401909552845490911682526001840180549394929391840191610a3790611ba6565b80601f0160208091040260200160405190810160405280929190818152602001828054610a6390611ba6565b8015610ab05780601f10610a8557610100808354040283529160200191610ab0565b820191906000526020600020905b815481529060010190602001808311610a9357829003601f168201915b5050509183525050600282015460208201526003808301546001600160401b0381166040840152606090920191600160401b900460ff1690811115610af757610af76119fa565b6003811115610b0857610b086119fa565b815260039190910154600160481b90046001600160401b031660209091015292915050565b610b35611440565b610b3f600061149b565b565b6001600160a01b038416610b855760405162461bcd60e51b815260206004820152600b60248201526a5a65726f4164647265737360a81b60448201526064016105aa565b81610bbd5760405162461bcd60e51b8152602060048201526008602482015267115b5c1d1e50da5960c21b60448201526064016105aa565b80610bf65760405162461bcd60e51b815260206004820152600960248201526808adae0e8f290c2e6d60bb1b60448201526064016105aa565b6001600160a01b0380851660009081526020819052604090208054909116610c2d5780546001600160a01b03191633178155610ca9565b80546001600160a01b0316331480610c6857506001600160a01b038516600090815260016020908152604080832033845290915290205460ff165b610ca95760405162461bcd60e51b81526020600482015260126024820152714e6f744f776e65724f7244656c656761746560701b60448201526064016105aa565b60018101610cb8848683611c2e565b506002810182905560038101805460019190600090610ce19084906001600160401b0316611ced565b82546101009290920a6001600160401b0381810219909316918316021790915560038301805468ffffffffffffffffff60401b198116600160481b42851602908117600160401b1790925584546040516001600160a01b039182169550908a16937fa57881725c80f3c9b197851221577fe5bcc793b35bd81cb9cfb8981fadbe20cc93610662938b938b938b9392811692169190911790611d1a565b6000918252600080516020611dc4833981519152602090815260408084206001600160a01b0393909316845291905290205460ff1690565b6001600160a01b038084166000908152602081905260409020548491163314610e115760405162461bcd60e51b815260206004820152600e60248201526d2737ba2932b1b7b93227bbb732b960911b60448201526064016105aa565b6001600160a01b038316610e565760405162461bcd60e51b815260206004820152600c60248201526b5a65726f44656c656761746560a01b60448201526064016105aa565b6001600160a01b03848116600081815260016020908152604080832094881680845294825291829020805460ff191687151590811790915591519182527f23c373344ac1f1f50daef0ec31f6924948297610efa8499362428205bcc86b4f910160405180910390a350505050565b610ecd82610671565b610ed681611120565b6106af83836111cf565b600080516020611da4833981519152610ef881611120565b6001600160a01b03821660009081526020819052604090206001600382810154600160401b900460ff1690811115610f3257610f326119fa565b14610f6c5760405162461bcd60e51b815260206004820152600a6024820152694e6f7450656e64696e6760b01b60448201526064016105aa565b6003810180546001600160401b034216600160481b0268ffffffffffffffffff60401b19909116176802000000000000000017905560405133906001600160a01b038516907ff09e49e5fe2ab9da0b7aa9f0f1d7d0832cb1633d67c5749d355bbcaad331b97390600090a3505050565b6001600160a01b0380831660009081526020819052604090205483911633146110385760405162461bcd60e51b815260206004820152600e60248201526d2737ba2932b1b7b93227bbb732b960911b60448201526064016105aa565b6001600160a01b03821661107d5760405162461bcd60e51b815260206004820152600c60248201526b2d32b937a732bba7bbb732b960a11b60448201526064016105aa565b6001600160a01b0380841660008181526020819052604080822080548786166001600160a01b0319821681179092559151919094169392849290917f93c39323bb850791d9c9fe2e16a03ad33f4bd2db4a9589f8e1993f736e15e9f69190a450505050565b6110ea611440565b6001600160a01b03811661111457604051631e4fbdf760e01b8152600060048201526024016105aa565b61111d8161149b565b50565b61111d813361150c565b6000600080516020611dc48339815191526111458484610d7d565b6111c5576000848152602082815260408083206001600160a01b03871684529091529020805460ff1916600117905561117b3390565b6001600160a01b0316836001600160a01b0316857f2f8788117e7eff1d82e926ec794901d17c78024a50270940304540a733656f0d60405160405180910390a4600191505061051c565b600091505061051c565b6000600080516020611dc48339815191526111ea8484610d7d565b156111c5576000848152602082815260408083206001600160a01b0387168085529252808320805460ff1916905551339287917ff6391f5c32d9c69d2a47ea670b442974b53935d1edc7fd64eb21e047a839171b9190a4600191505061051c565b6000807ff0c57e16840df040f15088dc2f81fe391c3923bec73e23a9662efc9c229c6a0061051c565b61127c611545565b61111d8161156a565b610b3f611545565b306001600160a01b037f000000000000000000000000000000000000000000000000000000000000000016148061131457507f00000000000000000000000000000000000000000000000000000000000000006001600160a01b0316611308600080516020611d84833981519152546001600160a01b031690565b6001600160a01b031614155b15610b3f5760405163703e46dd60e11b815260040160405180910390fd5b61111d611440565b816001600160a01b03166352d1902d6040518163ffffffff1660e01b8152600401602060405180830381865afa925050508015611394575060408051601f3d908101601f1916820190925261139191810190611d4e565b60015b6113bc57604051634c9c8ce360e01b81526001600160a01b03831660048201526024016105aa565b600080516020611d8483398151915281146113ed57604051632a87526960e21b8152600481018290526024016105aa565b6106e88383611572565b306001600160a01b037f00000000000000000000000000000000000000000000000000000000000000001614610b3f5760405163703e46dd60e11b815260040160405180910390fd5b336114727f9016d09d72d40fdae2fd8ceac6b6234c7706214fd39c1cd1e609a0528c199300546001600160a01b031690565b6001600160a01b031614610b3f5760405163118cdaa760e01b81523360048201526024016105aa565b7f9016d09d72d40fdae2fd8ceac6b6234c7706214fd39c1cd1e609a0528c19930080546001600160a01b031981166001600160a01b03848116918217845560405192169182907f8be0079c531659141344cd1fd0a4f28419497f9722a3daafe3b4186f6b6457e090600090a3505050565b6115168282610d7d565b6108c05760405163e2517d3f60e01b81526001600160a01b0382166004820152602481018390526044016105aa565b61154d6115c8565b610b3f57604051631afcd79f60e31b815260040160405180910390fd5b6110ea611545565b61157b826115e2565b6040516001600160a01b038316907fbc7cd75a20ee27fd9adebab32041f755214dbc6bffa90cc0225b39da2e5c2d3b90600090a28051156115c0576106e88282611647565b6108c06116bd565b60006115d261124b565b54600160401b900460ff16919050565b806001600160a01b03163b60000361161857604051634c9c8ce360e01b81526001600160a01b03821660048201526024016105aa565b600080516020611d8483398151915280546001600160a01b0319166001600160a01b0392909216919091179055565b6060600080846001600160a01b0316846040516116649190611d67565b600060405180830381855af49150503d806000811461169f576040519150601f19603f3d011682016040523d82523d6000602084013e6116a4565b606091505b50915091506116b48583836116dc565b95945050505050565b3415610b3f5760405163b398979f60e01b815260040160405180910390fd5b6060826116f1576116ec8261173b565b611734565b815115801561170857506001600160a01b0384163b155b1561173157604051639996b31560e01b81526001600160a01b03851660048201526024016105aa565b50805b9392505050565b80511561174a57805160208201fd5b60405163d6bda27560e01b815260040160405180910390fd5b60006020828403121561177557600080fd5b81356001600160e01b03198116811461173457600080fd5b80356001600160a01b03811681146117a457600080fd5b919050565b60008083601f8401126117bb57600080fd5b5081356001600160401b038111156117d257600080fd5b6020830191508360208285010111156117ea57600080fd5b9250929050565b60008060006040848603121561180657600080fd5b61180f8461178d565b925060208401356001600160401b0381111561182a57600080fd5b611836868287016117a9565b9497909650939450505050565b60006020828403121561185557600080fd5b5035919050565b6000806040838503121561186f57600080fd5b8235915061187f6020840161178d565b90509250929050565b6000806040838503121561189b57600080fd5b6118a48361178d565b915061187f6020840161178d565b634e487b7160e01b600052604160045260246000fd5b600080604083850312156118db57600080fd5b6118e48361178d565b915060208301356001600160401b038111156118ff57600080fd5b8301601f8101851361191057600080fd5b80356001600160401b03811115611929576119296118b2565b604051601f8201601f19908116603f011681016001600160401b0381118282101715611957576119576118b2565b60405281815282820160200187101561196f57600080fd5b816020840160208301376000602083830101528093505050509250929050565b6000602082840312156119a157600080fd5b6117348261178d565b60005b838110156119c55781810151838201526020016119ad565b50506000910152565b600081518084526119e68160208601602086016119aa565b601f01601f19169290920160200192915050565b634e487b7160e01b600052602160045260246000fd5b602080825282516001600160a01b03168282015282015160c06040830152600090611a3e60e08401826119ce565b9050604084015160608401526001600160401b036060850151166080840152608084015160048110611a8057634e487b7160e01b600052602160045260246000fd5b8060a08501525060a0840151611aa160c08501826001600160401b03169052565b509392505050565b60008060008060608587031215611abf57600080fd5b611ac88561178d565b935060208501356001600160401b03811115611ae357600080fd5b611aef878288016117a9565b9598909750949560400135949350505050565b60208152600061173460208301846119ce565b600080600060608486031215611b2a57600080fd5b611b338461178d565b9250611b416020850161178d565b915060408401358015158114611b5657600080fd5b809150509250925092565b81835281816020850137506000828201602090810191909152601f909101601f19169091010190565b602081526000611b9e602083018486611b61565b949350505050565b600181811c90821680611bba57607f821691505b602082108103611bda57634e487b7160e01b600052602260045260246000fd5b50919050565b601f8211156106e857806000526020600020601f840160051c81016020851015611c075750805b601f840160051c820191505b81811015611c275760008155600101611c13565b5050505050565b6001600160401b03831115611c4557611c456118b2565b611c5983611c538354611ba6565b83611be0565b6000601f841160018114611c8d5760008515611c755750838201355b600019600387901b1c1916600186901b178355611c27565b600083815260209020601f19861690835b82811015611cbe5786850135825560209485019460019092019101611c9e565b5086821015611cdb5760001960f88860031b161c19848701351681555b505060018560011b0183555050505050565b6001600160401b03818116838216019081111561051c57634e487b7160e01b600052601160045260246000fd5b606081526000611d2e606083018688611b61565b90508360208301526001600160401b038316604083015295945050505050565b600060208284031215611d6057600080fd5b5051919050565b60008251611d798184602087016119aa565b919091019291505056fe360894a13ba1a3210667c828492db98dca3e2076cc3735a920a3ca505d382bbc71f3d55856e4058ed06ee057d79ada615f65cdf5f9ee88181b914225088f834f02dd7bc7dec4dceedda775e58dd541e08a116c6c53815c0bd028192f7b626800a26469706673582212206d6bb08577e59f249fd11bf000fabf6fae7ea3d784a06338593d65dbf577c76e64736f6c634300081c0033",
  "linkReferences": {},
  "deployedLinkReferences": {}
}